:020000040003F7
:10C00000B030002081C603009BC603009DC603001C
:10C010000000000000000000000000000000000020
:10C02000000000000000000000000000D5C0030078
:10C030000000000000000000A1C60300A3C603002A
:10C04000A5C60300A5C60300A5C60300A5C6030038
:10C05000A5C6030000000000A5C60300A5C6030096
:10C06000A5C60300A5C60300A5C60300A5C6030018
:10C07000A5C60300A5C60300A5C60300A5C6030008
:10C08000A5C603001BDF0300A5C60300A5C6030069
:10C0900031DF0300A5C6030053F70300A5C6030064
:10C0A000A5C60300A5C603000000000000000000B4
:10C0B0000000000000000000000000000000000080
:10C0C0000348854603F0F0FB0048004797C2030091
:10C0D000B03000200648704502D1EFF3098101E03D
:10C0E000EFF30881886902380078024A104700009F
:10C0F000FDFFFFFF7DC10300056885F308884668E2
:10C100000A4AEFF305839A42304602D1084CA6460C
:10C110003047074C064D0646064FF0B4034C034D1E
:10C12000024E024FF0B40448004700000000000037
:10C13000FFFFFFFF00000021F9FFFFFF401E00BFCF
:10C1400000BF00BF00BF00BF00BF00BF00BF00BFF7
:10C1500000BF00BF00BFF1D170470000401E00BF0C
:10C1600000BF00BF00BF00BF00BF00BF00BF00BFD7
:10C1700000BF00BF00BFF1D17047000010B50C46F2
:10C18000002802D00120086010BD2168002911D0CC
:10C190001B48421A814212D02C2A0DD201222C3087
:10C1A0002C310B7803701346521C401E491E2C2B59
:10C1B000F7D904E00E200BE02C2203F025FB00222F
:10C1C0002C210F4802F0A2FA0D49891E0880002098
:10C1D000206010BD10B5044600222C21084802F052
:10C1E00095FA0749891E0988884201D00B2010BDA5
:10C1F0002C220349204603F007FB002010BD00005D
:10C20000823F00200A4610B501469C4801F06EFCB2
:10C2100010BD10B501F08BF910BD10B5984C86B06B
:10C220001ECC03946C460EC4002807D0684618DF65
:10C23000002803D00022114601F058FC0F20800393
:10C2400013DF002803D00022114601F04FFC8D4B74
:10C2500050228D490E2003F04FFA002803D000220F
:10C26000114601F043FC0020049001206946087447
:10C2700004A860DF002803D00022114601F036FC3C
:10C28000824803F05EFA002803D00022114601F034
:10C290002DFC06B010BD08B57D48C169B1294FD04D
:10C2A00000247C480F2140698903884204D0002281
:10C2B0001146104601F01AFC012000070069012117
:10C2C0008902884204D000221146104601F00EFC7B
:10C2D00071480090714B06220421002001F04FFEAE
:10C2E000002803D00022114601F000FC6D496C4883
:10C2F000086000F06FF802F050F902F095F901269D
:10C30000F503002820D0284600F02EF902F09BF912
:10C31000002803D00022114601F0E8FB20467040BF
:10C32000FFF77BFF00F083F802F0B3F9002803D099
:10C330000022114601F0DAFB284600F02EF909E050
:10C3400001240021C161ACE720467040FFF765FF82
:10C3500000F06DF854480069000AC007C00F04D00F
:10C3600000202043514C07D101E00120F9E7A068EB
:10C3700002F062F800280DD1284600F0F5F802F02E
:10C380001DF9002803D00022114601F0AFFB28461A
:10C3900000F003F9A06802F04FF8002802D0A0686E
:10C3A00002F018F9BFF34F8F42494148C860BFF30C
:10C3B0004F8FFEE71CB5019100903F4A0821684667
:10C3C00001F0B4FB1CBD10B500213C4A084601F049
:10C3D000ADFB10BD00B53349032085B020310860A6
:10C3E0003049103108602F491C31086001222E4865
:10C3F0001104816009118160C900816000206946D3
:10C40000087414230B7048708A7019210903039172
:10C410007D21090102900191684600F0DFF80028B3
:10C4200003D00022114601F061FB05B000BD164AA1
:10C4300010B550321421082001F064FB002803D00D
:10C440000022114601F052FB10BD10B50446082928
:10C4500004D000221146104601F048FB21686068B4
:10C46000884710BD10B5002904D00022114610469F
:10C4700001F03CFB03F002F910BD0000EFBEADDEA1
:10C4800004F90300C7C303009423002013C2030070
:10C490000005004000100010B5C30300E420002098
:10C4A0000C00030020070050000500500030000081
:10C4B0000400FA0500ED00E04BC4030065C403006E
:10C4C000F8B56A4C207B00284DD0204620210F5C17
:10C4D000667A0B21664A012541560368002E2FD04B
:10C4E000002F01D0D36000E09360002363725F48A7
:10C4F000A67A827C407C002E07D0891849B2E1726E
:10C50000227C914207DBA37205E0891A49B2E172ED
:10C51000814200DCA5720B21615681420DDC60690D
:10C52000FF23410CC003F5330022C01851415A00CB
:10C53000002303F039F901460BE06420411A05E0BD
:10C54000002F01D0936000E0D36065720620414364
:10C55000491D0022606801F0C3FD002803D00022BD
:10C56000114601F0C3FAF8BD10B5404C217B0029FB
:10C5700006D0216801432160207A002802D00AE019
:10C58000082010BD00223B49606801F0A9FD002889
:10C59000F7D101202072002010BD10B5334C217B53
:10C5A000002908D0216881432160207A00280AD020
:10C5B000002902D007E0082010BD606801F0CDFD21
:10C5C0000028F9D12072002010BD28490A7B002ADA
:10C5D00002D048610020704708207047F8B5234D0D
:10C5E0000646287B0024002801D00820F8BD002E34
:10C5F0001DD0307800281CD07178884219D9B078C5
:10C60000002816D0F068002813D02421174803F022
:10C6100014F9164814223146103003F0F5F80121C0
:10C62000124AA972032320321278E86915E00E201D
:10C63000F8BD0720F8BDC6070DD00F4EA700BE19E4
:10C640003360002A0E4603D0094FA640FE6002E088
:10C65000074FA640BE604008641C0028EBD1297338
:10C66000064A0021281D01F0DDFCF8BD342500201C
:10C67000000500508F02000000070050C1C40300F5
:10C680000321094802680A430260084802680A4315
:10C6900002600748804707480047FEE7FEE7FEE7DD
:10C6A000FEE7FEE7FEE700002405004054050040D9
:10C6B000C1C60300C1C00300234922480860704777
:10C6C00010B500F01DF8002805D021491F4848602A
:10C6D000C813204988612048018CC9B201290ED1B4
:10C6E000818C09070BD1018D0906090F042906D198
:10C6F000808D0006000F02D118490120886010BD0E
:10C700001548018CC9B2012917D1818C090714D1B0
:10C71000018D09060A0F03D1828D1206120F0ED069
:10C72000090F012903D1828D1206120F07D00329A8
:10C7300003D1808D0006000F01D00020704701203A
:10C74000704700000024F40000200020DFFF07C035
:10C7500000050040006C0040C00F00F000060040E3
:10C76000FFB583B0074600200C9C86462678054618
:10C770003AE07868A90041180A88684682804988AA
:10C78000C1800022694601A865DF002810D16846F3
:10C7900001780598814226D17046002801D00022F8
:10C7A00000E002222078891841181F2902D90C20A4
:10C7B00007B0F0BD7146002908D1401CC0B2411C31
:10C7C000069B049A21701A54012086462178069807
:10C7D0000A18694601A865DF0028E9D16946207872
:10C7E0000978401820706D1C3888A842C1DC70465A
:10C7F000002804D020780699801B401E8855002010
:10C80000D6E7F8B51546069C1E4607460222009458
:10C81000FFF7A6FF002806D13346102229463846E6
:10C820000094FFF79DFFF8BDF7B582B000260546DE
:10C83000167000781446002805D02846039900F0A9
:10C84000DFF806002DD1A87800281BD02078039FA0
:10C85000001D1F2824D8684679DF002821D12178BF
:10C860000322481C20707A5421781922481C207019
:10C870007A542078C1196846008800F0BCF8217805
:10C8800040182070A988002923D001208446AA6876
:10C890000398002A07D0227853189B1C1F2B04D919
:10C8A0000C2005B0F0BD0720FBE71346521C227098
:10C8B000491CC15422786746511C21708754237843
:10C8C000AA881818A96802F09FFF207829794018D3
:10C8D0002070E868002815D00021415622788C4647
:10C8E000D01C03991F28DBD8501C022320708B54C6
:10C8F00022780A23501C20708B5420786246431CF7
:10C9000023700A54288A002809D028460094062259
:10C9100002211030039BFFF774FF0600C1D1288B62
:10C92000002809D028460094072203211830039BD1
:10C93000FFF767FF0600B4D1288C2F462037002868
:10C9400008D00094152214213846039BFFF759FFA5
:10C950000600A6D1A86A002805D02246039900F057
:10C9600084F806009DD1E86A002805D02246039984
:10C9700000F0BAF8060094D1387D002806D022468F
:10C980002846039900F0E2F806008AD1304688E78D
:10C9900070B50D4692B000216A46117007241171DE
:10C9A000002812D08188002905D08168002902D092
:10C9B0000978490702D4204612B070BD02A9FFF7DA
:10C9C00033FF0028F8D102AE00E00026002D0BD086
:10C9D000A8880028EFD101AA0AA92846FFF724FF5A
:10C9E0000028E9D10AAA00E000226846037901780C
:10C9F000304672DFE0E70870000A48700220704796
:10CA0000F8B514780746A01C15460E461F2803D813
:10CA10007878801C1F2801D90C20F8BD1D20001B30
:10CA200080B26946864608803019801C7DDF002868
:10CA3000F3D13878022805D168460088704501D8BE
:10CA4000092107E078780821002801D0704501D934
:10CA500068460088421C3255641CE2B2B154297801
:10CA6000801C081828700020F8BDF8B50D46117814
:10CA70000646881D14461F2801D90C20F8BD3388AE
:10CA80000720062BFAD31927FF01BB4202D94E4AD1
:10CA90009342F3D17288062AF0D3BA4202D94A4FA0
:10CAA000BA42EBD1484FBB4203D0BA4201D09342C5
:10CAB000E4D8481C052220706A5420781222411CB8
:10CAC00021702A54207841193088FFF794FF21788B
:10CAD0004018C0B2207041197088FFF78CFF217890
:10CAE000401820700020F8BD70B5054600790E464C
:10CAF000801C1446C0B21178821C8A181F2A01D9E2
:10CB00000C2070BD0A46491C2170401CB05420788E
:10CB1000FF22411C21703254207881192888FFF7A8
:10CB20006AFF21784018C0B22070AA88002A09D074
:10CB3000A968002908D0801902F066FE20782979BA
:10CB400040182070002070BD072070BDF7B582B07E
:10CB500002981446006B0F46002832D00298002538
:10CB60002030009028E00298016B0C2068430E18DA
:10CB7000217830794A1C2270C01C78542078162203
:10CB8000411C21703A542078C1193088FFF733FFD7
:10CB900021784018C0B22070B288002A09D0B1684C
:10CBA00000290ED0C01902F02FFE207831794018EC
:10CBB00020706D1C0098EDB2007DA842D3D80020F3
:10CBC0006FE607206DE60000FFFF000038B57B49E7
:10CBD0007B4A488890420FD04A787A4C521CD2B295
:10CBE0004A70237B934208D3083175DF002803D0B5
:10CBF000A169002900D0884738BD00254D70217CEF
:10CC0000002907D03B2176DF002803D0A169002945
:10CC100000D0884761690029EED0684605708847D2
:10CC200038BD70B5054601461C22664802F0ECFD91
:10CC3000624C002626702968002907D00822A01817
:10CC400002F0E2FD204608307ADF02E05B4808305F
:10CC50007BDF002808D1401E6080584866705A4A21
:10CC60000021001D01F0DEF970BD10B55348406889
:10CC700001F073FA10BDF8B55048103000F090F88C
:10CC800000264E4D4F4C002807D0616900291BD06B
:10CC900001206A461070684615E02878002805D003
:10CCA0006169002910D0684606700CE06878002899
:10CCB0000CD0A1680022686801F012FA002803D0A5
:10CCC000A169002900D088472E70F8BD6168F1E79E
:10CCD000F8B53C4C02880027384DE689102A18D058
:10CCE00029464968112A21D0122A2DD0502A0FD165
:10CCF000C288801DB2420BD1028B022A08D1C27EAB
:10CD0000837E10021843C007C00F13D0FFF7B3FF94
:10CD1000F8BD818869800146284808220E3110300C
:10CD200002F072FD6F70002EF0D0F8BD0020C043FD
:10CD300068806F70084601F010FA0028F5D0A169EC
:10CD40000029F2D08847F8BD811D1C480822103008
:10CD500002F05AFDDAE7F8B5014618480822083013
:10CD600002F052FD154808307ADF04000DD1134857
:10CD7000103000F015F80125002808D0114841694D
:10CD8000002902D06846057088472046F8BD0B4E42
:10CD9000357031460831708875DF04467570F4E7E8
:10CDA0004188064808300288914204D34088814275
:10CDB00001D80120704700207047000004200020A7
:10CDC000FFFF000058250020CDCB030030B585B013
:10CDD000002822D00388FE4CA34220D0FD4B1B78B4
:10CDE000002B1CD0FB4B10255B1C1D7059700024C0
:10CDF00001259A70032269460A82009401940294E4
:10CE00000394028A0A808D708C8004A90291039396
:10CE100000886946A6DF05B030BD0E20FBE708207C
:10CE2000F9E7F0B589B004460227684607700D4659
:10CE30008783A08A08AB07AA0021A5DF0026002867
:10CE400004D0E16A00291AD0884718E06846008CAF
:10CE5000C007C00F13D06846868020886946A8DFC7
:10CE6000002812D1A97E28461B3001220B0002F0B7
:10CE70002DFD09430E1C2225272A412C4300FF20AB
:10CE8000FE30694688802088A8DF09B0F0BD6B4677
:10CE90001E740CE006221DE069460A750690A26A1F
:10CEA00004A9204690470020EFE76B461A742B8BAD
:10CEB000022BF1D2EEE768460774F0E7032000E0AA
:10CEC0000420694612E00520FBE7298B032905D2DF
:10CED000032208212046FFF779FFD6E74178027840
:10CEE000080210436946888202D006200874D6E7FB
:10CEF0000720FBE70920E4E70322EBE730B585B024
:10CF00000D46040038D0002D36D06868002833D094
:10CF10000020C043B04B20800FCB049301AB07C36C
:10CF2000AE486946088001A8811E63DF002822D12F
:10CF3000221D69460120A0DF00281CD168468078A8
:10CF4000A071204600F0C6F8002814D1204600F059
:10CF500051F900280FD12946204600F0FCF800289E
:10CF600009D16868A062A868002800D0E0629949E9
:10CF70000120087000204EE70E204CE73EB5002847
:10CF800020D000291ED0826A002A1BD00A88102ACD
:10CF900019D0112A28D0502A17D0512A12D104466C
:10CFA0008879891D02280DD14888228A904209D1AA
:10CFB0002046891CFFF735FF002803D0E16A0029CD
:10CFC00000D088473EBD898810E0CA8803899A420C
:10CFD000F8D108226B461A708A7F1A7120310291AB
:10CFE000826A694690473EBD0021C94301803EBD2B
:10CFF000F0B585B00A4605002DD0288874498842CE
:10D000002BD074480078002827D0724C1020641C64
:10D010002070072060700127A770032168460182F5
:10D020000026E11C104600F04CF801466846008AD4
:10D030000918684601820096019602960396298A8D
:10D0400001808770868004A803940290288869462E
:10D05000A6DF05B0F0BD0E20FBE70820F9E7F0B52C
:10D0600085B00A46050028D028885949884226D02C
:10D0700058480078002822D0564C1120641C20709B
:10D080000127684607820026611C104600F019F847
:10D0900001466846008A0918684601820096019692
:10D0A00002960396298A01808770868004A80394DB
:10D0B000029028886946A6DFCBE70E20C9E7082042
:10D0C000C7E70870020A4A70020C8A70000EC87026
:10D0D0000420704730B58FB005461C21684602F029
:10D0E000ACFB6946087804210843694608700024AF
:10D0F00001940394049405940694A87908A988706F
:10D1000036486946801C0884601C00070794000F9D
:10D110000C77103048778A7FF9200240F720921C64
:10D120000240EF200240012002438A77142109A81F
:10D1300002F083FB08A8099007A80A9069468C852D
:10D140001420CC8508860D942B46A888083309AA9C
:10D15000A2DF0FB030BDF0B58FB00F4605461C21E1
:10D16000684602F06AFB6846017802263143017086
:10D17000002401940394049405940694A97908A8C2
:10D18000817016496846091D0184601C0107090F5A
:10D1900068461031079401770020014668464177C0
:10D1A000817FF9200140F720891C0140EF200140D8
:10D1B0000120014368468177142109A802F03DFB54
:10D1C00008A8099007A80A9068468685C48507E0E4
:10D1D000FFFF00001C20002014F9030030150000A0
:10D1E00006860D972B46A888203309AA6946A2DF38
:10D1F0000FB0F0BD30B58FB005461C21684602F077
:10D200001CFB694608780821084310221043694630
:10D210000870002401940394049405940694A8795A
:10D2200008A98870144869460884601C00070794A0
:10D23000000F0C7710304877887FF9210840F721DC
:10D24000801C084010430121084369468877142157
:10D2500009A802F0F2FA08A8099007A80A906946FE
:10D260008C851720CC8508860D942B46A888103312
:10D2700009AAA2DF6DE70000311500000149016035
:10D280007047000000FC030010B5FEF735FF10BD2D
:10D2900031B5054C04E0401E00902046FEF74EFFDD
:10D2A00000980028F7D138BDE7030000182250434A
:10D2B000FE4A002180180171816041610122816173
:10D2C0000261C1607047FFB581B0F94C049B039ABD
:10D2D000054666781A4303200092002E03D1002AE7
:10D2E0000ED0012262706778039A012636079200F9
:10D2F0003B0002F0EBFA072707162940526127008E
:10D300000222EFE77069326992B2504332693369A1
:10D310001204920C9BB2594321DF002812D1022142
:10D320000FE0084620DF00280CD10399002901D026
:10D33000032106E00499002916D12978042946D052
:10D3400017E0617005B0F0BD7069326992B2504368
:10D35000326993B24B4301461846039A21DF0028F5
:10D36000F0D10499002901D00421EAE729780429A1
:10D3700020D00521E5E773693069366980B24343FF
:10D3800068681B189B18B6B24E43301880181946AF
:10D39000049A21DF0028E9D0D4E7306980B24843FD
:10D3A000696880188A08696921DF0028CAD1009954
:10D3B00000290CD00621C4E77069316989B248435D
:10D3C000316989B202F0DAF920DF0028BAD10721E9
:10D3D000B7E7F8B5B54918230A780F205A4354180F
:10D3E000B34922796669241DCF68022A1BD0012522
:10D3F0002D07042A2AD0052A5BD1286981B230463C
:10D4000002F0BCF90146A36828699A1980B2484322
:10D41000101A820860681818861928694B1C80B297
:10D420005843801B34E0B80262686169121A091817
:10D43000A3683018181801239B029A4202D292085E
:10D4400021DF31E0FF22013221DF2DE0E268974940
:10D4500014205043F4314018001D0BC8B04203D1D2
:10D4600060685943814218D0022A16D0286981B2D7
:10D47000304602F083F90146286980B24843301AE9
:10D48000820828694B1C80B2584363689B19C01AF4
:10D4900083082046FFF717FF06E0286981B230466F
:10D4A00002F06CF9C01920DF002802D17F49012267
:10D4B0008A70F8BDF8B57D4C069E65780A2D1DD0A2
:10D4C00027787D19EDB20A2D01D30A3DEDB2182758
:10D4D0007D432D192871AA6103C9EE60AB606961B3
:10D4E0002861A1780020002904D1FFF772FF1128DC
:10D4F00000D100206178491C6170F8BD0420F8BD9E
:10D5000038B50C46E2680978022A0CD014235A4335
:10D51000664BF4339D5862680092024620460C30F8
:10D520006369A84738BD624A10321568F3E7F8B559
:10D53000064600205D4D8646A878012812D10020BD
:10D540005B4AA8705378082B0DD02F463C781821E1
:10D550006143C919022E14D0032E03D10D20091DD9
:10D56000FFF7CEFFF8BD022E09D0107000F0A8FA28
:10D570000028F7D02978182251434919EFE7507055
:10D58000F4E74B4AD5686D1CD5600E79091D022E53
:10D5900005D14F68AA02BA4201D3012200E000225D
:10D5A0009446052E01D1072B03D00022042E02D071
:10D5B00003E00122FAE7072B03D00027042E02D054
:10D5C00007E00127FAE74968AD028D4201D3002B3D
:10D5D00027D000213A430A4361460A4317D0344A10
:10D5E00032495070D0604878401E4870601CC0B20C
:10D5F00008700A2801D30A380870182060434118BF
:10D600007046091DFFF77CFF2046FFF74FFE00F034
:10D6100057FA0028A6D0254918230A785A435118EA
:10D620009DE70121D6E770B50025214C1F48E56034
:10D6300065700570457085702E463046FFF736FEE2
:10D64000761C0A2EF9D3012212076560516928461B
:10D650001269491E92B25143E560A1601349F43149
:10D660000D608D600D61CD60114910310D608880B5
:10D6700001212170607070BDF8B50D4A0446107824
:10D680000E46002830D0002C30D0002E2ED020683E
:10D6900000282BD0012000076768016989B28F42FA
:10D6A00028D8102F26D3A168002903E07425002074
:10D6B000242000201ED09568794343694A190069E7
:10D6C00080B243439A4215D801200007006980B216
:10D6D00081420DD9012000070069394680B202F06D
:10D6E0004DF8002906D103E00820F8BD0E20F8BD52
:10D6F000B80701D00720F8BDFA49486801281CD0B6
:10D700000F4621C61421F84A41438E1875602368DC
:10D7100053506168B160A168F160A268616800233C
:10D720005143012212075B1C14699BB2A4B28C42C4
:10D7300005D21469A4B2091B02E00420F8BD00213F
:10D740001469A4B265191469A4B28C42EBD9BD6006
:10D75000401C336178600020F8BD30B5E14B1B7888
:10D76000002B07D0002807D0002A05D00468002C21
:10D7700012D103E0082030BD0E2030BDDA4B1D6809
:10D78000002D09D04568986841436918DD68454314
:10D7900058682818884201D8072030BD146000203E
:10D7A000516030BDF8B50446CE481E460078154697
:10D7B0000F46002807D0002F07D0002C05D0206886
:10D7C000002817D103E00820F8BD0E20F8BDC64898
:10D7D000016800290ED0C268816840684A43101869
:10D7E0006268904206D9002D04D0A94202D3A8193C
:10D7F000884201D90720F8BD384600F05BF90028BF
:10D8000011D0304600F056F900280CD0606800F0C6
:10D8100051F9002807D02B463A46214602200096AF
:10D82000FFF748FEF8BD1020F8BDF8B50446AD4836
:10D830001E46007815460F46002807D0002F07D057
:10D84000002C05D02068002817D103E00820F8BD7F
:10D850000E20F8BDA448016800290ED0C268816876
:10D8600040684A4310186268904206D9002D04D0DF
:10D87000A94202D3A819884201D90720F8BD384629
:10D8800000F018F9002811D0304600F013F90028F4
:10D890000CD0606800F00EF9002807D02B463A46FD
:10D8A000214605200096FFF705FEF8BD1020F8BDC3
:10D8B000FFB58C4881B000781F4616460D460028FB
:10D8C00008D0002D08D00198002805D0286800282D
:10D8D00017D103E0082035E50E2033E5824C20689F
:10D8E00000280ED0E168A0686268414389186A6820
:10D8F000914206D9002E04D0B04202D3F1198142E0
:10D9000001D907201EE5019800F0D4F800281BD0AB
:10D91000384600F0CFF8002816D0686800F0CAF842
:10D92000002811D068683246C119019801F06CFFD7
:10D9300000962868142148432458002203212846D1
:10D94000019BA0470020FDE41020FBE4F8B505464C
:10D9500064480F460078002805D0002D05D02868BF
:10D96000002821D103E00820F8BD0E20F8BD5E4C50
:10D9700000262068002817D0A168E0684843616845
:10D980004118686881420FD900F094F800280DD042
:10D99000296814225143091968684A688968801AFD
:10D9A00001F0ECFE002903D00720F8BD1020F8BDDF
:10D9B0003B460022294604200096FFF77BFDF8BD78
:10D9C00048490978002907D0002807D04649F4398A
:10D9D0004978016000207047082070470E2070478A
:10D9E000404A1278002A0DD000280DD000290BD013
:10D9F0000268002A08D03B4A10321368002B05D079
:10DA000004207047082070470E20704702230B60E7
:10DA10000068106000207047F8B5044631481E4683
:10DA2000007817460D46002807D0002D07D0002C9F
:10DA300005D0206802281BD103E00820F8BD0E2085
:10DA4000F8BD284810300068002811D0084600F0C2
:10DA500031F800280ED0304600F02CF8002809D00C
:10DA60003B462A46214602200096FFF723FDF8BDDB
:10DA70000720F8BD1020F8BD08B51A4A1278002A10
:10DA800005D0002805D00268022A11D103E0082041
:10DA900008BD0E2008BD134A10321268002A07D0B4
:10DAA0000B460022014604200092FFF703FD08BD4B
:10DAB000072008BD800701D0002070470120704773
:10DAC000094910B5F4394A780020002A09D089782C
:10DAD000002906D1FFF77DFC002802D0112800D1D3
:10DAE000002010BD2420002068260020BFF34F8FA7
:10DAF00003490248C860BFF34F8FFEE70400FA05F0
:10DB000000ED00E030B5CB0008339DB29307002450
:10DB1000002B01D0072030BD574B9A605219DA60B4
:10DB20005C701C7058809980002030BDF7B5524C55
:10DB300082B060880F4681426ED800206946087026
:10DB40004F494E4E4868C005C00D18D0103840B23D
:10DB5000002807DA0207120F083A920892005118BB
:10DB6000C96904E08108474A890089180968800763
:10DB7000C00EC1400806850F012D01D10AE0042521
:10DB800068462EDF02280BD0002803D00022114661
:10DB9000FFF7ACFF6178A088814203D2491C02E004
:10DBA00072B6F7E700212278C9B2914207D06678B1
:10DBB0006178814201DA491C00E000216170012D89
:10DBC0000BD062B6684600782FDF022805D0002807
:10DBD00003D000221146FFF789FF2848864219D05A
:10DBE000A068F50004994151029900290CD0002F3A
:10DBF0000AD060883A464643E068301801F004FED7
:10DC0000A0682818878002E0002128188180002061
:10DC100005B0F0BD0420FBE70920F9E70EB504E0EC
:10DC200068468188029A0098904702AA01A968462E
:10DC300000F003F80028F3D00EBD70B50E4B05249C
:10DC40005D781E78B54215D01D781C789E88B44248
:10DC500001DA641C00E000241C705C88DE686C4300
:10DC6000A41904609B68E800C418A4880C801858A4
:10DC700000241060204670BD3C200020FFFF000003
:10DC800000ED00E000E400E08307FF22DB0E9A4095
:10DC90008907090E994000280BDA0007000F0838A1
:10DCA0008308FB489B001818C36993430B43C36167
:10DCB00070478308F7489B001B1818689043084377
:10DCC0001860704770B50124F34960040860F34997
:10DCD00040108860F14940398860F14D6C602F2018
:10DCE000FEF73CFAAC60EF4D00242F206C61FEF78C
:10DCF00035FA2C7170BDF0B5EA4F2421BC68414360
:10DD00000D1939694A1C09D024224A4316196B6837
:10DD10007268934204D8D21A726029623861F0BDE9
:10DD20000A4602E00A46396A9B1B4E1C0BD0242689
:10DD30004E4337197E689E42F4D324264E4336194B
:10DD40007768FF1A77606B60296224214A431119B2
:10DD50000862F0BD70B5D34C2269A5681346114620
:10DD600006E0814207D00A46242671434919096A10
:10DD70004E1CF6D170BD002EFCD08A420CD124205E
:10DD800043435819006A2061401C05D1C44B01204F
:10DD90009860002363616071242041434819242363
:10DDA00041685A43006A52191062421CE2D0242290
:10DDB0005043401942685118416070BDF8B5B94CE4
:10DDC0002569681C35D0B848002640686169401A4A
:10DDD00007023F0A19E024204543A0682A1850682A
:10DDE000B84214D8A3693F1A8619156A002B09D0C6
:10DDF000D16990699847002807D000221146FFF7A3
:10DE000075FE02E09169D0698847681CE3D1A1786A
:10DE1000E078814206D1401CC0B2E070022801D1F6
:10DE20000020E0709F490006800D1C310E5000F06C
:10DE3000E7F9F8BDF8B504469A4800270169009152
:10DE400046785CE09748F100C2688D1851E0601C8C
:10DE500007D0944A24209268604321468018046ABF
:10DE600024E02878182141436A68401CC0B2521847
:10DE70002870A978884200D12F708A4B51682420DD
:10DE80009B684843C0181378012B34D1037D002BC5
:10DE900031D193688360D368C360136903615269A9
:10DEA000C261804A5279002A00D087607D4B826827
:10DEB0005B6996469C46D31A1A027C4B120A9A4218
:10DEC00002D2C368D21808E0724663469A1A120258
:10DED000C368120A934202D99A1A426000E047606E
:10DEE00087600122C7600275921E02620846FFF732
:10DEF00002FF601CABD1287869788842A7D13046F0
:10DF0000761EF6B200289DD16648016900988142CC
:10DF100001D00120F8BD0020F8BD6549002008604F
:10DF200048608860C860624940390860486045E7D9
:10DF3000FEB50020C0435B4D0290686901906846C1
:10DF40002E6900F062F9074600F07CF90446002FC4
:10DF500008D002AA0199009800F0BCF90298FFF7D6
:10DF600069FF06E00298FFF765FF002801D1002C49
:10DF700002D0304600F0D7F900206871FEBDFFB531
:10DF80009807002481B01E4615460F4600280BD185
:10DF9000002E09D0FFF796FE42490A9888610F705B
:10DFA000324600208E6008E0072005B0F0BD242333
:10DFB0004343D4549B181C75401CB842F7DB242003
:10DFC0004743BB19032048700F461846CB601946DB
:10DFD0001830002218232E465E43D3005B181C70B5
:10DFE0005C709D7058603018521C032AF5DB0020CD
:10DFF000C0433861BC70FC7001242E4824050460C5
:10E0000003211420FFF740FE234880380460264C8B
:10E010000198A06003211120FFF736FE6068786147
:10E020000020C2E770B51F4CA568002D06D0002A5D
:10E0300006D0002804D00023247809E0082070BD11
:10E04000072070BD24265E43AE5D002E04D05B1C0D
:10E05000A342F7DB042070BD242401265C432E5527
:10E0600064196170A2610360002070BD08494868AE
:10E07000C005C00D2ED0103840B200281CDA0207AF
:10E08000120F083A920892005118C96919E000006D
:10E0900000ED00E000E400E080E100E0401301401A
:10E0A000001001404C20002000150140FFFF7F00C0
:10E0B0004011014080E200E08108C74A89008918C8
:10E0C00009688007C00EC1400806800F012803D0F0
:10E0D000032803D0022070470020704701207047BA
:10E0E000FEB50446BD48174682680D46002A0CD08E
:10E0F00001788C4201D2052D01D20720FEBD2146B8
:10E1000024235943535C012B01D00820FEBD8818FD
:10E11000407801281DD00026FFF7A8FFC000AF49B6
:10E120000190C9684018694600F043F9002812D0F0
:10E1300001210170AA49446049680830E2C0A7493A
:10E140000198C96841180098487000F059F80020FB
:10E15000FEBD2E46E0E70420FEBDF8B59F4D044607
:10E16000A868002809D029788C4201D30720F8BD7F
:10E1700024216143405C012801D00820F8BDFFF74D
:10E1800075FFC600E8686946301800F012F90028EB
:10E190000AD0022101704460E86831180098487084
:10E1A00000F02EF80020F8BD0420F8BD38B58B4CE7
:10E1B000A068002815D0FFF759FFC500E068694640
:10E1C000281800F0F6F800280DD003210170091F6F
:10E1D0004160E06829180098487000F011F80020AC
:10E1E00038BD082038BD042038BD7D49496801602C
:10E1F00000207047401A0002000A1060002070479B
:10E200000120784900050860704710B57349002364
:10E210008A78CC78A24212D0521CD2B28A70022ADA
:10E2200000D18B708A786D4B92001C339A58026033
:10E23000486910180002000A4861012010BD0360FF
:10E24000002010BDF8B5654801690091457833E0BC
:10E250006248E900C0680E1834782AE0182060434C
:10E260007168641C0818B178E4B2A14200D100249E
:10E270000178022902D003291BD113E0574A4068D4
:10E280002421926841438F18397D002911D0FFF76E
:10E2900061FD002038750CE024277843C018027512
:10E2A000006A03E04D4900228B680869471CF3D1DE
:10E2B00008617078A042D1D128466D1EEDB20028C9
:10E2C000C6D1464801690098814201D00120F8BDBD
:10E2D0000020F8BDF7B5414C0025A76823691EE072
:10E2E00024215943C9194E68864202D9301A486020
:10E2F00017E0801B751900264E600E750E699C464E
:10E300000B6AB646002E0AD0019E76193602360AEE
:10E310008E607646CE6016680E6261461160591CAA
:10E32000DED12361FEBDF8B52C4801694A1C3DD001
:10E3300024225143826889184E6829494C684769EC
:10E340000079E11B0D022D0AED1C002815D10120DA
:10E35000254A00045060244A403A50602149400058
:10E3600080310860214908602149012008602F2080
:10E37000FDF7F4FE194901200871B54200D2354677
:10E38000E81900021649000A40310860144949683A
:10E39000001B091B0902090A0002000AC91C81426C
:10E3A00003D901200F4940040860F8BDFFF78AFC3B
:10E3B000F8BD42788378521C934200D10022037842
:10E3C000934201D1002070470A60416840781822CA
:10E3D000504308187047000000E400E04C20002083
:10E3E0000015014000E200E04013014000E100E0C0
:10E3F0000010014010B5BF480378012B02D102295B
:10E4000000D10170100003D000221146FFF76EFB0F
:10E4100010BD10B5B74C40DF002803D000221146D4
:10E42000FFF764FBFFF7FAFB2078022803D00328EC
:10E4300001D00428EFD110BD38B50068401C19D0B8
:10E4400000246846FEF71AFF00980178012910D1D0
:10E45000418800290AD081680320000380680022D7
:10E4600000F054F900994988814201D1012400E06B
:10E470000024204638BD10B504469E481C21001DCE
:10E48000FFF764FA002803D000221146FFF72EFBA5
:10E49000984800231C222146001DFFF783F900281D
:10E4A00003D000221146FFF721FB10BD0FB4F8B5D1
:10E4B0006846FEF7E3FE6846027E418B01238D4CE1
:10E4C000FF258D48002A1AD0012A1ED0032A32D0F7
:10E4D0000021022A3ED0052A4ED0042A56D0062A10
:10E4E00009D100F0E4FA002803D000221146FFF71A
:10E4F000FDFA04202070F8BC08BC04B01847418025
:10E50000099981600370057110E04180089A0799AC
:10E510008918099A89188160A521017005710799E8
:10E52000C1600899426101610A9981612370724852
:10E53000FFF7A1FFDFE700990A7802704A8842805E
:10E5400089688160AA2101710799C16008990161F8
:10E5500009990BE0009A1678A52E09D00670568806
:10E560004680926882600571C16001614161DDE7AA
:10E57000418081600570F6E700F099FA002803D029
:10E5800000221146FFF7B2FA0320B3E74180816011
:10E590000570009909790171C9E70EB557480090D7
:10E5A0001C20019001200290FFF73DF8002804D1C3
:10E5B00050496846091DFFF75FF80EBD10B500F021
:10E5C00018FE002805D100F0EDFB0446FFF721FFFF
:10E5D000204610BD70B511DF002803D0002211467F
:10E5E000FFF784FA46480121C163464A00201268B9
:10E5F000444B80330C468440144204D0C506ED0ED3
:10E600000C46AC401C60401C2028F3D30324240398
:10E61000A06813DF002803D000221146FFF766FA36
:10E62000A068FEF731FE70BD08B56846FEF726FE0D
:10E6300000980178A52904D00079AA2801D00020EB
:10E6400008BD012008BD10B500F0CDFF002803D1A2
:10E6500000F0A9FF00281BD06420FEF719FE00F08F
:10E6600048FF002803D000221146FFF73FFA00F0D0
:10E67000BAFF002803D000221146FFF737FA00F056
:10E6800072FF040003D000221146FFF72FFA204644
:10E6900010BD00B587B014221B4901A801F0B4F8E1
:10E6A0000598009001A80FC8FFF700FFFFF7B1FE23
:10E6B000002007B000BD10B50E4988B00446002305
:10E6C0001C22091D6846FFF7F3F8684600782070A1
:10E6D0006846408860800298A06068460079207192
:10E6E0000398E06004982061059860610698A06135
:10E6F00008B010BD702000207C260020F5E3030048
:10E700004000004000E100E024F9030010B5044699
:10E71000002A02D01088002210E00A48FBE7030A12
:10E7200000020343A05C584003061B0F434018033C
:10E73000584083B21806C00C5840521C8A42EED38F
:10E7400010BD0000FFFF000070B500250C290ED39E
:10E7500004464318008941000919581A0A38C2B200
:10E760001E48022A027002D30A318B4201D20920CC
:10E7700070BD1B4801F048F81A491B480A888242BC
:10E7800002D02388934217D14988814202D0608801
:10E79000884211D1144A0323521E20891B03A84228
:10E7A0000AD9690009194989914203D09E896D1CD3
:10E7B000B142F4D1002070BD0B2070BD10B5002215
:10E7C000FFF7A4FF064A51781278090211438842E4
:10E7D00001D00B2010BD002010BD00007C200020C7
:10E7E0009826002080100010FFFF000056480021EE
:10E7F00001705748554A02608160C160016108227A
:10E8000041614260816108467047002070470028DE
:10E8100005D04D490A78002A03D0042070470E2005
:10E82000704701220A704849491C01600020704766
:10E83000454900200870704710B500291DD00022FE
:10E840000A60434A5368002B1BD0202817D85B1E50
:10E850005360D0682423401CD0601069146843437F
:10E86000E3180B60012383409169401C1943400762
:10E87000400F91611061002010BD0E2010BD0C20D2
:10E8800010BD042010BDF0B5314A0646916800293C
:10E890002AD057691020791A4907490F14680B4686
:10E8A00024254D436519B54206D1012495698C4054
:10E8B00065400020956104E0491C4907490F8F42DB
:10E8C000EED1491C4E07760F956901210C469C40FC
:10E8D00025420AD19368002B07D05B1E93605368D2
:10E8E0005B1C53603346F1E70420F0BD184A242333
:10E8F000117C1268491E4907490F59432031505075
:10E900000020704770B500281AD0002918D0104A8E
:10E91000D368002B16D05B1ED360936824265B1C43
:10E920009360536915681C467343EE1820330660E4
:10E93000E858641C08606007400F5061002070BDFB
:10E940000E2070BD042070BD7D200020A426002074
:10E95000C427002008280CD004DC002807D0062893
:10E960000FD108E00B280AD00C280AD105E00120BD
:10E970007047022070470320704704207047042925
:10E9800001D0062070470520704710B50B460328BC
:10E9900015D004280ED100290DD0FA48FA49C088B4
:10E9A000884207D0132176DF002803D000221146C9
:10E9B000FFF79CF810BD1046FFF765FFF4E7012153
:10E9C0001846FFF7C7FF02460121F048FEF7FEF99F
:10E9D000EAE7F0B5054608790E4685B0810701D013
:10E9E00003223AE0E74900901431FFF725FF0100C8
:10E9F00011D1E44CB168009A606900F005FF0098FD
:10EA0000FFF774FF010006D1204669461430FFF776
:10EA100079FF010004D0284600F02FFA05B0F0BDC0
:10EA2000042001900098800802906069039001A87A
:10EA300000F073FC07000BD0092F19D06069FFF7B5
:10EA400022FF010002D0284600F017FA3946E2E71B
:10EA50003079216940180122206103212846FEF700
:10EA6000B5F90028DAD000221146FFF73FF8D5E7C4
:10EA7000307921694118216160780028CED0608901
:10EA8000401E0004000C6081C8D12846FEF7E7FA5A
:10EA9000002803D000221146FFF728F82089608162
:10EAA000BCE710B500221146FFF720F810BD10B5E5
:10EAB000B44CB549E088884208D0132176DF00289D
:10EAC00010D000221146FFF711F80BE0A0780028C3
:10EAD00008D074DF002803D000221146FFF706F8A3
:10EAE0000020A070FEF7C1F8002803D000221146D4
:10EAF000FEF7FCFF002010BD70B50D780446012024
:10EB0000A04A2B0000F0E2FE0A2B304306132057E8
:10EB10005C46601200F08FFC0421FFF71BFF0246E9
:10EB200004212EE000221146FEF7E0FF70BDFFF742
:10EB3000BEFF002803D000221146FEF7D7FF00F0E9
:10EB400095FC002808D170BDFFF7B1FF002803D065
:10EB500000221146FEF7CAFF00F09DFC70BD107147
:10EB600088680078507170BD022010718868007844
:10EB70000128F8D100F005FC0221FFF7EBFE024668
:10EB800002212046FEF722F90028CBD170BD0320D8
:10EB9000107170BD12792046012A06D0022A07D0D2
:10EBA000032AF6D1FFF715FF70BD00F079F970BDAB
:10EBB00000F0B1F970BD507088881081508170BD2F
:10EBC00000205070108170BD20461169FEF710FAC8
:10EBD000DAE701B56D4890B08079694688706C4875
:10EBE0000880382101A800F028FE0220694608713B
:10EBF000002088710120088110A90391694688824C
:10EC00000691002101A8FDF7C3FE002803D00022D1
:10EC10001146FEF76BFF11B000BDF0B5594C87B03F
:10EC2000A07800283DD159481421143800F005FE81
:10EC30002046564CC0780025143C0127002832D0CD
:10EC400020466430007926466836FF2807D0052024
:10EC5000FFF7BFFF277066602572258215E04B48DD
:10EC60000696443005906846057106A800906846EF
:10EC7000077305A802900420FFF7ABFF2570022060
:10EC800020726846E060282020824048658214385F
:10EC900073DF002803D000221146FEF727FF394812
:10ECA000877007B0F0BD0620FFF793FF2570656001
:10ECB0002572E8E710B5334C01880022E38886B05E
:10ECC00018294DD00CDC10291ED0112920D0132971
:10ECD00029D0142916D12D498088303181DF0BE0ED
:10ECE000192926D052293BD055290BD180790028EB
:10ECF00008D11321184676DF002803D000221146E0
:10ED0000FEF7F4FE06B010BD8088E080A270F9E73F
:10ED10000520E0602078002801D1FFF77EFF002069
:10ED2000C043E080EEE7174A1846183200217FDF23
:10ED3000E2E780790028E5D1A270E068401EE0603B
:10ED400002D0FFF76AFFDDE71422124901A800F0A4
:10ED50005BFD059801AC00900FCCFFF7A7FBD1E756
:10ED6000002211461846A9DFC6E710B50446FDF794
:10ED7000AFFF21460548FEF701F92046FFF79AFF4D
:10ED800010BD000084200020FFFF0000F4270020B9
:10ED90003015000044F9030010B500221146FEF7BB
:10EDA000A5FEEDE730B5824D87B000242C71814877
:10EDB00000F0BFFC00285ED17F4800F05CFAFFF74E
:10EDC00015FD002857D17D48FDF704FA002801D130
:10EDD0000120E870112069460872072278A102A874
:10EDE0007CDF002803D000221146FEF77FFE00944E
:10EDF0000C2168460194018018214180FF21848004
:10EE00009131C1807ADF002803D000221146FEF73D
:10EE10006DFE05206946009408806B4801906B48A0
:10EE2000029066483038FEF769F8002803D00022C7
:10EE30001146FEF75BFE1C21684600F0FEFC6448AC
:10EE40000190012080030290009403216846017321
:10EE5000C48104745F48069005946846FDF7E1FE9E
:10EE6000002803D000221146FEF740FE00F084F88F
:10EE7000FFF7D3FE002007B030BD10B50A460446A8
:10EE800003211046FFF766FD024603212046FDF7E9
:10EE90009DFF002803D000221146FEF727FE6FE7F2
:10EEA00030B5054687B00020009001900290039095
:10EEB0003F486A4640791070474A1068926804904B
:10EEC00068460692059008790C2806D003221BE0BC
:10EED00000221146FEF70AFECDE78C68204600F0BE
:10EEE0005DF80190201D00F059F80290204608308E
:10EEF00000F054F8039004A800F0C0F90028BAD03C
:10EF00000121FFF727FD024601212846FDF75EFF9C
:10EF10000028DDD1AFE7FEB50446012000908868E7
:10EF200002900879002283070ED08007800F042208
:10EF3000121A0020034605E00E79029D3618B6002D
:10EF4000AB51401C9042F7D308798018800801909B
:10EF5000684600F02DFA00280DD00221FFF7FAFCD8
:10EF6000024602212046FDF731FF002803D000228F
:10EF70001146FEF7BBFDFEBD0D491E20183108806D
:10EF8000887801221043E1221040DF220C3010402B
:10EF900088700720C87010200871704710B50446AB
:10EFA00000F056FC0002E178000A09060843E7E693
:10EFB000842000206BED03008BE90300242800204F
:10EFC0004466755461726700F9EA030099ED030025
:10EFD000CD0C0000A3EA030038F9030070B5FA4C29
:10EFE0001E4660781546022902D0042916D108E091
:10EFF000052813D1A369002B10D0324629460420DE
:10F000000BE002280AD1F148406880470320607075
:10F01000A369002B02D0324629469847280003D026
:10F0200000221146FEF762FD70BD00B5E64987B0CB
:10F03000012008700520694608710598009001A814
:10F040000FC8FFF733FA07B000BD10B5DE4C2078CB
:10F05000002801D0082010BD2069FFF77EF80028A5
:10F0600003D000221146FEF741FD0F210022890442
:10F070002069FFF735F8040003D000221146FEF79F
:10F0800035FD204610BDD04910B5CF48243141612F
:10F0900002214170C1682430FEF7EEFC002803D045
:10F0A00000221146FEF722FD10BDC74910B5C64823
:10F0B0001C314161022141700320000380680F214F
:10F0C0008903081A4108C0481C30FEF7D5FC002807
:10F0D00003D000221146FEF709FD10BD704700B5B0
:10F0E00087B01422BA4901A800F08EFB0598009061
:10F0F00001A80FC8FFF7DAF9A5E7B4490020503995
:10F100004A680321090389688A4208D9511A880A82
:10F1100080028905890D02D00121890240187047BB
:10F1200000B587B0012168460171A748818868460B
:10F13000C1800320000380680590A44850384168CE
:10F14000029181680391C0680490059800900A4676
:10F15000049B02990198FFF7A9F9002073E730B5E5
:10F160009A4C9948503C87B02430E168FEF784FC03
:10F17000002803D000221146FEF7B8FC9248E2684E
:10F180001C30416800230830FEF746FC050012D110
:10F19000142101A800F051FB0021684601718A4842
:10F1A00081886846C180E06804900598009001A8B5
:10F1B0000FC8FFF77BF9284607B030BD00B587B010
:10F1C000032168460171804881886846C1807F4874
:10F1D00050384168029181680391C0680490059895
:10F1E00000900A46049B02990198FFF75FF90020FE
:10F1F00029E73EB5764A6B46143207CA07C3724DFB
:10F200000024AC702946AC8024316846FEF7E8FB48
:10F21000002801D06C703EBD03206B49000380685C
:10F220002431486024390A46526ACA610F21890391
:10F23000091A490840186449664A1C314860624806
:10F2400000211030FEF7EEFE002803D00022114608
:10F25000FEF74CFC0F21002289042869FEF740FFCD
:10F26000002803D000221146FEF740FC0120AC60CC
:10F27000687000203EBD54498861704770B542688F
:10F2800052481468536891685038D26804604360EB
:10F29000C26081600078440701D5840705D19C07CE
:10F2A00003D18C0701D1940701D0062070BD5B18F3
:10F2B0009A18454D0F239B02EA60994213D846499C
:10F2C000464B424CC60709D08868181A90420AD3A8
:10F2D000434820604348606043480FE08968591AFA
:10F2E0004908914201D20C2070BD4049216040493B
:10F2F0006160800701D53F4800E03F48A060687822
:10F30000012802D00826304670BDFFF79EFE060099
:10F31000FAD12168E8688847F5E770B5050004D0A0
:10F32000287A800703D0102070BD0E2070BD264CB7
:10F330006078032803D0042801D0052801D00820D4
:10F3400070BD6868E1688600A0688019884204D9A9
:10F350000020C043A0600C2070BDFFF776FE00289F
:10F36000FAD1A9683246A3686069FEF755FB002808
:10F37000F2D1A1688919A160E2689142ECD009201C
:10F3800070BD10B5104C0820A168002900D010BD38
:10F3900061780429FBD10D48A1784038FFF7D4F9F2
:10F3A000002802D00021A17010BD0521617010BDA0
:10F3B000F8B5054C0746607803281FD004281FD0F5
:10F3C00008252846F8BD0000A4200020A028002021
:10F3D00058F903002BF003000030000000C00300C8
:10F3E00087F00300DFF0030021F10300ABF003001E
:10F3F000DDF00300BDF103005FF103000420607045
:10F40000A068002801D00820DCE7FFF71EFE0500F9
:10F41000D8D178688600A0788119402901D90920BF
:10F42000D0E7914AB9681018324600F0EDF9A0789B
:10F430008019A070C5E710B58C4C6078052813D1F1
:10F4400006206070E168A06888420DD1FFF7FDFDDD
:10F45000002808D16069E1684068FFF7AFF900282B
:10F4600001D10721617010BD082010BD10B57F4883
:10F470004178072901D0082010BD0069FEF76DFE14
:10F48000002803D000221146FEF730FB76484030BA
:10F490008068804710BD00B587B0062069460871B6
:10F4A0000598009001A80FC8FFF700F8CBE5F8B564
:10F4B0001C4617460D46064600F0C1F8002881D0CC
:10F4C00001200003854207D92346291B301B1A4619
:10F4D000FFF7EDFF00280BD13A462946304600F0F1
:10F4E000B9F8002804D13A462946304600F0A7F87A
:10F4F00068E7F0B589B06846FFF7DDF803980028A3
:10F500002AD001210903069A4018904226D9501AA0
:10F5100045081046039A0C468718024668001618DC
:10F5200000190790032000038068039988420DD2D8
:10F5300061190846042200F08DF800280CD12146FC
:10F540000422084600F086F8002805D1BA1B2B4695
:10F5500030460799FFF7ABFF09B0F0BD039A069854
:10F5600000F078F8F8E700B58BB004A8FFF7A3F82F
:10F57000089800280DD0079800280CD007990A9801
:10F580004018019000210898009180080290684678
:10F5900018DF0BB000BD0320000380680F21890332
:10F5A000091A4908ECE700B58BB004A8FFF783F807
:10F5B00008980028EDD00F210798890300280CD067
:10F5C000079A0A98019180180290032208980092E5
:10F5D00080080390684618DFDBE70320000380689B
:10F5E0000A1A5208EEE730B58FB06846FFF763F8A5
:10F5F0000398002814D001210903069A401890426C
:10F6000014D9501A43081046039A5C008218001956
:10F61000611803242403A468039DAC4202D20E2087
:10F620000FB030BD121AFFF742FFF9E703200BAB12
:10F6300007C3039880080E900BA818DFF0E71FB5EA
:10F64000032301909008039000930291684618DF0D
:10F6500004B010BD1FB501230190900803900093E2
:10F660000291684618DFF3E760280020A4200020FC
:10F6700010B508461146FCF7C5FD10BDF8B53D4C68
:10F680002078002837D02069002807D00026E068BD
:10F69000002805D00025002E04D013E00126F6E74F
:10F6A0000125F8E7684651DF052806D0002806D076
:10F6B00000221146FEF71AFA04E0012602E0216951
:10F6C00000988847002D12D1608869460880A0689C
:10F6D00061DF052806D0002806D000221146FEF77B
:10F6E00005FA04E0012502E0E168A0688847002EE1
:10F6F000D8D0002DCFD0F8BD70B5002901D08C072F
:10F7000001D0072070BD1B4C0125A16062801A4901
:10F71000636010DF0028F5D12570162026DF70BD4C
:10F7200011DF002801D0012100E00021114A1170F1
:10F730007047002803D00F49C860002070470E2092
:10F740007047002803D00B490861002070470E2045
:10F75000704710B507484068002807D08047002848
:10F7600003D000221146FEF7C1F910BDFFF786FF56
:10F7700010BD0000D020002071F6030030B50B460C
:10F78000014600202022012409E00D46D5409D427B
:10F7900005D31D469540491B254695404019154601
:10F7A000521E002DF1DC30BDF0B51FB4064600201E
:10F7B00082B005464024019100901BE00199224649
:10F7C0000F46304600F05EF8049A059B801A994176
:10F7D00010D310461946224600F044F8361A8F41DD
:10F7E0000197224601200021009F00F03BF83818C5
:10F7F0004D4100902046641E0028DFDC019B0098EC
:10F800002946324607B0F0BD03460B439B0703D0A1
:10F8100009E008C9121F08C0042AFAD203E00B78D5
:10F820000370401C491C521EF9D27047D2B201E04D
:10F830000270401C491EFBD270470022F6E710B54B
:10F8400013460A4604461946FFF7F0FF204610BD4E
:10F850000321001D401E037812021A43491EF9D5E8
:10F860001046704710B5202A04DB0146203A91402B
:10F87000002010BD914020239C1A0346E340194309
:10F88000904010BD10B5202A04DB0846203AD04035
:10F89000002110BD0B46D340D0402024A21A914035
:10F8A0000843194610BD0000064C0125064E05E030
:10F8B000E36807CC2B430C3C98471034B442F7D391
:10F8C000FCF702FC78F9030098F9030030B47446A1
:10F8D000641E2578641CAB4200D21D46635D5B004C
:10F8E000E31830BC184702E008C8121F08C1002AFC
:10F8F000FAD170477047002001E001C1121F002AB1
:10F90000FBD1704702000000000000000000000072
:10F910000000000023D1BCEA5F782315DEEF12124D
:10F9200000000000020000000000000000000000D5
:10F9300000000000000000000300000000000000C4
:10F9400000000000050000000000000000000000B2
:10F9500000000000000000000400000000000000A3
:10F96000000000000000000000000000DDEF0300C8
:10F97000000000000000000098F9030000200020B3
:10F98000E4000000E6F803007CFA0300E420002015
:10F99000CC0F0000F6F803000024F4000000000083
:10F9A0000000000000000000000000000000000057
:10F9B0000000000000000000000000000000000047
:10F9C0000000000000000000000000000000000037
:10F9D0000000000000000000000000000000000027
:10F9E0000000000000000000000000000000000017
:10F9F0000000000000000000000000000000000007
:10FA000000000000000000000000000000000000F6
:10FA100000000000000000000000000000000000E6
:10FA20000000FFFF000000000500000000000000D3
:10FA300000000000000000000000000000000000C6
:10FA400000000000000000000000000000000000B6
:10FA500000000000000000000000000000000000A6
:10FA60000000000000000000000000000000000096
:0CFA70000000000000000000000000008A
:020000041000EA
:0410140000C0030015
:040000050003C0C173
:00000001FF
